{
  "_format": "hh-sol-artifact-1",
  "contractName": "Todo",
  "sourceName": "contracts/Todo.sol",
  "abi": [
    {
      "inputs": [],
      "stateMutability": "nonpayable",
      "type": "constructor"
    },
    {
      "anonymous": false,
      "inputs": [
        {
          "indexed": false,
          "internalType": "uint256",
          "name": "index",
          "type": "uint256"
        }
      ],
      "name": "itemDelete",
      "type": "event"
    },
    {
      "anonymous": false,
      "inputs": [
        {
          "indexed": false,
          "internalType": "string",
          "name": "todo",
          "type": "string"
        },
        {
          "indexed": false,
          "internalType": "bool",
          "name": "done",
          "type": "bool"
        },
        {
          "indexed": false,
          "internalType": "address",
          "name": "authur",
          "type": "address"
        },
        {
          "indexed": false,
          "internalType": "uint256",
          "name": "index",
          "type": "uint256"
        }
      ],
      "name": "itemLog",
      "type": "event"
    },
    {
      "inputs": [
        {
          "internalType": "string",
          "name": "todo",
          "type": "string"
        }
      ],
      "name": "addTodo",
      "outputs": [],
      "stateMutability": "nonpayable",
      "type": "function"
    },
    {
      "inputs": [
        {
          "internalType": "uint256",
          "name": "index",
          "type": "uint256"
        }
      ],
      "name": "completeTodo",
      "outputs": [],
      "stateMutability": "nonpayable",
      "type": "function"
    },
    {
      "inputs": [
        {
          "internalType": "uint256",
          "name": "index",
          "type": "uint256"
        }
      ],
      "name": "deleteTodo",
      "outputs": [],
      "stateMutability": "nonpayable",
      "type": "function"
    },
    {
      "inputs": [],
      "name": "owner",
      "outputs": [
        {
          "internalType": "address",
          "name": "",
          "type": "address"
        }
      ],
      "stateMutability": "view",
      "type": "function"
    },
    {
      "inputs": [],
      "name": "todoCount",
      "outputs": [
        {
          "internalType": "uint256",
          "name": "",
          "type": "uint256"
        }
      ],
      "stateMutability": "view",
      "type": "function"
    },
    {
      "inputs": [
        {
          "internalType": "uint256",
          "name": "",
          "type": "uint256"
        }
      ],
      "name": "todos",
      "outputs": [
        {
          "internalType": "string",
          "name": "todo",
          "type": "string"
        },
        {
          "internalType": "bool",
          "name": "done",
          "type": "bool"
        },
        {
          "internalType": "address",
          "name": "authur",
          "type": "address"
        },
        {
          "internalType": "uint256",
          "name": "index",
          "type": "uint256"
        }
      ],
      "stateMutability": "view",
      "type": "function"
    },
    {
      "inputs": [
        {
          "internalType": "uint256",
          "name": "index",
          "type": "uint256"
        },
        {
          "internalType": "string",
          "name": "_todo",
          "type": "string"
        }
      ],
      "name": "updateTodo",
      "outputs": [],
      "stateMutability": "nonpayable",
      "type": "function"
    }
  ],
  "bytecode": "0x608060405234801561001057600080fd5b50336000806101000a81548173ffffffffffffffffffffffffffffffffffffffff021916908373ffffffffffffffffffffffffffffffffffffffff1602179055506110cc806100606000396000f3fe608060405234801561001057600080fd5b506004361061007d5760003560e01c806395ffebf51161005b57806395ffebf5146100d8578063bc8bc2b4146100f4578063d534ee8814610127578063fe0dee17146101435761007d565b806320fe2144146100825780636e3c67381461009e5780638da5cb5b146100ba575b600080fd5b61009c6004803603810190610097919061085b565b610161565b005b6100b860048036038101906100b3919061085b565b6102c2565b005b6100c261040b565b6040516100cf91906108c9565b60405180910390f35b6100f260048036038101906100ed9190610a2a565b61042f565b005b61010e6004803603810190610109919061085b565b610565565b60405161011e9493929190610b1c565b60405180910390f35b610141600480360381019061013c9190610b68565b61064a565b005b61014b6107ae565b6040516101589190610bc4565b60405180910390f35b6002600082815260200190815260200160002060010160019054906101000a900473ffffffffffffffffffffffffffffffffffffffff168073ffffffffffffffffffffffffffffffffffffffff163373ffffffffffffffffffffffffffffffffffffffff1614610206576040517f08c379a00000000000000000000000000000000000000000000000000000000081526004016101fd90610c51565b60405180910390fd5b60016002600084815260200190815260200160002060010160006101000a81548160ff0219169083151502179055507f014f457e16eae4c5a51767fca0ee48c62572f64a29243bc2178f17cbaab95afd6002600084815260200190815260200160002060000160016002600086815260200190815260200160002060010160019054906101000a900473ffffffffffffffffffffffffffffffffffffffff16856040516102b69493929190610d6a565b60405180910390a15050565b6002600082815260200190815260200160002060010160019054906101000a900473ffffffffffffffffffffffffffffffffffffffff168073ffffffffffffffffffffffffffffffffffffffff163373ffffffffffffffffffffffffffffffffffffffff1614610367576040517f08c379a000000000000000000000000000000000000000000000000000000000815260040161035e90610c51565b60405180910390fd5b600260008381526020019081526020016000206000808201600061038b91906107b4565b6001820160006101000a81549060ff02191690556001820160016101000a81549073ffffffffffffffffffffffffffffffffffffffff0219169055600282016000905550507fea66df62b951ad4448b4df704b142d345f17ce0a4fc4b463cb1e68627065b2a7826040516103ff9190610bc4565b60405180910390a15050565b60008054906101000a900473ffffffffffffffffffffffffffffffffffffffff1681565b60405180608001604052808281526020016000151581526020013373ffffffffffffffffffffffffffffffffffffffff16815260200160015481525060026000600154815260200190815260200160002060008201518160000190816104959190610f4d565b5060208201518160010160006101000a81548160ff02191690831515021790555060408201518160010160016101000a81548173ffffffffffffffffffffffffffffffffffffffff021916908373ffffffffffffffffffffffffffffffffffffffff160217905550606082015181600201559050507f014f457e16eae4c5a51767fca0ee48c62572f64a29243bc2178f17cbaab95afd816000336001546040516105429493929190610b1c565b60405180910390a16001600081548092919061055d9061104e565b919050555050565b600260205280600052604060002060009150905080600001805461058890610ca0565b80601f01602080910402602001604051908101604052809291908181526020018280546105b490610ca0565b80156106015780601f106105d657610100808354040283529160200191610601565b820191906000526020600020905b8154815290600101906020018083116105e457829003601f168201915b5050505050908060010160009054906101000a900460ff16908060010160019054906101000a900473ffffffffffffffffffffffffffffffffffffffff16908060020154905084565b6002600083815260200190815260200160002060010160019054906101000a900473ffffffffffffffffffffffffffffffffffffffff168073ffffffffffffffffffffffffffffffffffffffff163373ffffffffffffffffffffffffffffffffffffffff16146106ef576040517f08c379a00000000000000000000000000000000000000000000000000000000081526004016106e690610c51565b60405180910390fd5b816002600085815260200190815260200160002060000190816107129190610f4d565b507f014f457e16eae4c5a51767fca0ee48c62572f64a29243bc2178f17cbaab95afd826002600086815260200190815260200160002060010160009054906101000a900460ff166002600087815260200190815260200160002060010160019054906101000a900473ffffffffffffffffffffffffffffffffffffffff16866040516107a19493929190610b1c565b60405180910390a1505050565b60015481565b5080546107c090610ca0565b6000825580601f106107d257506107f1565b601f0160209004906000526020600020908101906107f091906107f4565b5b50565b5b8082111561080d5760008160009055506001016107f5565b5090565b6000604051905090565b600080fd5b600080fd5b6000819050919050565b61083881610825565b811461084357600080fd5b50565b6000813590506108558161082f565b92915050565b6000602082840312156108715761087061081b565b5b600061087f84828501610846565b91505092915050565b600073ffffffffffffffffffffffffffffffffffffffff82169050919050565b60006108b382610888565b9050919050565b6108c3816108a8565b82525050565b60006020820190506108de60008301846108ba565b92915050565b600080fd5b600080fd5b6000601f19601f8301169050919050565b7f4e487b7100000000000000000000000000000000000000000000000000000000600052604160045260246000fd5b610937826108ee565b810181811067ffffffffffffffff82111715610956576109556108ff565b5b80604052505050565b6000610969610811565b9050610975828261092e565b919050565b600067ffffffffffffffff821115610995576109946108ff565b5b61099e826108ee565b9050602081019050919050565b82818337600083830152505050565b60006109cd6109c88461097a565b61095f565b9050828152602081018484840111156109e9576109e86108e9565b5b6109f48482856109ab565b509392505050565b600082601f830112610a1157610a106108e4565b5b8135610a218482602086016109ba565b91505092915050565b600060208284031215610a4057610a3f61081b565b5b600082013567ffffffffffffffff811115610a5e57610a5d610820565b5b610a6a848285016109fc565b91505092915050565b600081519050919050565b600082825260208201905092915050565b60005b83811015610aad578082015181840152602081019050610a92565b60008484015250505050565b6000610ac482610a73565b610ace8185610a7e565b9350610ade818560208601610a8f565b610ae7816108ee565b840191505092915050565b60008115159050919050565b610b0781610af2565b82525050565b610b1681610825565b82525050565b60006080820190508181036000830152610b368187610ab9565b9050610b456020830186610afe565b610b5260408301856108ba565b610b5f6060830184610b0d565b95945050505050565b60008060408385031215610b7f57610b7e61081b565b5b6000610b8d85828601610846565b925050602083013567ffffffffffffffff811115610bae57610bad610820565b5b610bba858286016109fc565b9150509250929050565b6000602082019050610bd96000830184610b0d565b92915050565b7f4f6e6c79206f776e65722063616e2063616c6c20746869732066756e6374696f60008201527f6e00000000000000000000000000000000000000000000000000000000000000602082015250565b6000610c3b602183610a7e565b9150610c4682610bdf565b604082019050919050565b60006020820190508181036000830152610c6a81610c2e565b9050919050565b7f4e487b7100000000000000000000000000000000000000000000000000000000600052602260045260246000fd5b60006002820490506001821680610cb857607f821691505b602082108103610ccb57610cca610c71565b5b50919050565b60008190508160005260206000209050919050565b60008154610cf381610ca0565b610cfd8186610a7e565b94506001821660008114610d185760018114610d2e57610d61565b60ff198316865281151560200286019350610d61565b610d3785610cd1565b60005b83811015610d5957815481890152600182019150602081019050610d3a565b808801955050505b50505092915050565b60006080820190508181036000830152610d848187610ce6565b9050610d936020830186610afe565b610da060408301856108ba565b610dad6060830184610b0d565b95945050505050565b60006020601f8301049050919050565b600082821b905092915050565b600060088302610e037fffffffffffffffffffffffffffffffffffffffffffffffffffffffffffffffff82610dc6565b610e0d8683610dc6565b95508019841693508086168417925050509392505050565b6000819050919050565b6000610e4a610e45610e4084610825565b610e25565b610825565b9050919050565b6000819050919050565b610e6483610e2f565b610e78610e7082610e51565b848454610dd3565b825550505050565b600090565b610e8d610e80565b610e98818484610e5b565b505050565b5b81811015610ebc57610eb1600082610e85565b600181019050610e9e565b5050565b601f821115610f0157610ed281610cd1565b610edb84610db6565b81016020851015610eea578190505b610efe610ef685610db6565b830182610e9d565b50505b505050565b600082821c905092915050565b6000610f2460001984600802610f06565b1980831691505092915050565b6000610f3d8383610f13565b9150826002028217905092915050565b610f5682610a73565b67ffffffffffffffff811115610f6f57610f6e6108ff565b5b610f798254610ca0565b610f84828285610ec0565b600060209050601f831160018114610fb75760008415610fa5578287015190505b610faf8582610f31565b865550611017565b601f198416610fc586610cd1565b60005b82811015610fed57848901518255600182019150602085019450602081019050610fc8565b8683101561100a5784890151611006601f891682610f13565b8355505b6001600288020188555050505b505050505050565b7f4e487b7100000000000000000000000000000000000000000000000000000000600052601160045260246000fd5b600061105982610825565b91507fffffffffffffffffffffffffffffffffffffffffffffffffffffffffffffffff820361108b5761108a61101f565b5b60018201905091905056fea26469706673582212204a68d852a60447ae0df7a509fb1cf5bbbbd58e708078432ea3ca9e6340d9eed064736f6c63430008180033",
  "linkReferences": {},
  "deployedLinkReferences": {}
}