{
  "_format": "hh-sol-artifact-1",
  "contractName": "Todo",
  "sourceName": "contracts/Todo.sol",
  "abi": [
    {
      "inputs": [],
      "stateMutability": "nonpayable",
      "type": "constructor"
    },
    {
      "inputs": [
        {
          "internalType": "string",
          "name": "todo",
          "type": "string"
        }
      ],
      "name": "addTodo",
      "outputs": [],
      "stateMutability": "nonpayable",
      "type": "function"
    },
    {
      "inputs": [
        {
          "internalType": "uint256",
          "name": "index",
          "type": "uint256"
        }
      ],
      "name": "completeTodo",
      "outputs": [],
      "stateMutability": "nonpayable",
      "type": "function"
    },
    {
      "inputs": [],
      "name": "owner",
      "outputs": [
        {
          "internalType": "address",
          "name": "",
          "type": "address"
        }
      ],
      "stateMutability": "view",
      "type": "function"
    },
    {
      "inputs": [],
      "name": "todoCount",
      "outputs": [
        {
          "internalType": "uint256",
          "name": "",
          "type": "uint256"
        }
      ],
      "stateMutability": "view",
      "type": "function"
    },
    {
      "inputs": [
        {
          "internalType": "address",
          "name": "",
          "type": "address"
        },
        {
          "internalType": "uint256",
          "name": "",
          "type": "uint256"
        }
      ],
      "name": "todos",
      "outputs": [
        {
          "internalType": "string",
          "name": "todo",
          "type": "string"
        },
        {
          "internalType": "bool",
          "name": "done",
          "type": "bool"
        }
      ],
      "stateMutability": "view",
      "type": "function"
    }
  ],
  "bytecode": "0x608060405234801561001057600080fd5b50336000806101000a81548173ffffffffffffffffffffffffffffffffffffffff021916908373ffffffffffffffffffffffffffffffffffffffff160217905550610a6b806100606000396000f3fe608060405234801561001057600080fd5b50600436106100575760003560e01c806320fe21441461005c578063428c1889146100785780638da5cb5b146100a957806395ffebf5146100c7578063fe0dee17146100e3575b600080fd5b61007660048036038101906100719190610368565b610101565b005b610092600480360381019061008d91906103f3565b610170565b6040516100a09291906104de565b60405180910390f35b6100b1610236565b6040516100be919061051d565b60405180910390f35b6100e160048036038101906100dc919061066d565b61025a565b005b6100eb610318565b6040516100f891906106c5565b60405180910390f35b6001600260003373ffffffffffffffffffffffffffffffffffffffff1673ffffffffffffffffffffffffffffffffffffffff168152602001908152602001600020600083815260200190815260200160002060010160006101000a81548160ff02191690831515021790555050565b6002602052816000526040600020602052806000526040600020600091509150508060000180546101a09061070f565b80601f01602080910402602001604051908101604052809291908181526020018280546101cc9061070f565b80156102195780601f106101ee57610100808354040283529160200191610219565b820191906000526020600020905b8154815290600101906020018083116101fc57829003601f168201915b5050505050908060010160009054906101000a900460ff16905082565b60008054906101000a900473ffffffffffffffffffffffffffffffffffffffff1681565b6001600081548092919061026d9061076f565b9190505550604051806040016040528082815260200160001515815250600260003373ffffffffffffffffffffffffffffffffffffffff1673ffffffffffffffffffffffffffffffffffffffff1681526020019081526020016000206000600154815260200190815260200160002060008201518160000190816102f19190610963565b5060208201518160010160006101000a81548160ff02191690831515021790555090505050565b60015481565b6000604051905090565b600080fd5b600080fd5b6000819050919050565b61034581610332565b811461035057600080fd5b50565b6000813590506103628161033c565b92915050565b60006020828403121561037e5761037d610328565b5b600061038c84828501610353565b91505092915050565b600073ffffffffffffffffffffffffffffffffffffffff82169050919050565b60006103c082610395565b9050919050565b6103d0816103b5565b81146103db57600080fd5b50565b6000813590506103ed816103c7565b92915050565b6000806040838503121561040a57610409610328565b5b6000610418858286016103de565b925050602061042985828601610353565b9150509250929050565b600081519050919050565b600082825260208201905092915050565b60005b8381101561046d578082015181840152602081019050610452565b60008484015250505050565b6000601f19601f8301169050919050565b600061049582610433565b61049f818561043e565b93506104af81856020860161044f565b6104b881610479565b840191505092915050565b60008115159050919050565b6104d8816104c3565b82525050565b600060408201905081810360008301526104f8818561048a565b905061050760208301846104cf565b9392505050565b610517816103b5565b82525050565b6000602082019050610532600083018461050e565b92915050565b600080fd5b600080fd5b7f4e487b7100000000000000000000000000000000000000000000000000000000600052604160045260246000fd5b61057a82610479565b810181811067ffffffffffffffff8211171561059957610598610542565b5b80604052505050565b60006105ac61031e565b90506105b88282610571565b919050565b600067ffffffffffffffff8211156105d8576105d7610542565b5b6105e182610479565b9050602081019050919050565b82818337600083830152505050565b600061061061060b846105bd565b6105a2565b90508281526020810184848401111561062c5761062b61053d565b5b6106378482856105ee565b509392505050565b600082601f83011261065457610653610538565b5b81356106648482602086016105fd565b91505092915050565b60006020828403121561068357610682610328565b5b600082013567ffffffffffffffff8111156106a1576106a061032d565b5b6106ad8482850161063f565b91505092915050565b6106bf81610332565b82525050565b60006020820190506106da60008301846106b6565b92915050565b7f4e487b7100000000000000000000000000000000000000000000000000000000600052602260045260246000fd5b6000600282049050600182168061072757607f821691505b60208210810361073a576107396106e0565b5b50919050565b7f4e487b7100000000000000000000000000000000000000000000000000000000600052601160045260246000fd5b600061077a82610332565b91507fffffffffffffffffffffffffffffffffffffffffffffffffffffffffffffffff82036107ac576107ab610740565b5b600182019050919050565b60008190508160005260206000209050919050565b60006020601f8301049050919050565b600082821b905092915050565b6000600883026108197fffffffffffffffffffffffffffffffffffffffffffffffffffffffffffffffff826107dc565b61082386836107dc565b95508019841693508086168417925050509392505050565b6000819050919050565b600061086061085b61085684610332565b61083b565b610332565b9050919050565b6000819050919050565b61087a83610845565b61088e61088682610867565b8484546107e9565b825550505050565b600090565b6108a3610896565b6108ae818484610871565b505050565b5b818110156108d2576108c760008261089b565b6001810190506108b4565b5050565b601f821115610917576108e8816107b7565b6108f1846107cc565b81016020851015610900578190505b61091461090c856107cc565b8301826108b3565b50505b505050565b600082821c905092915050565b600061093a6000198460080261091c565b1980831691505092915050565b60006109538383610929565b9150826002028217905092915050565b61096c82610433565b67ffffffffffffffff81111561098557610984610542565b5b61098f825461070f565b61099a8282856108d6565b600060209050601f8311600181146109cd57600084156109bb578287015190505b6109c58582610947565b865550610a2d565b601f1984166109db866107b7565b60005b82811015610a03578489015182556001820191506020850194506020810190506109de565b86831015610a205784890151610a1c601f891682610929565b8355505b6001600288020188555050505b50505050505056fea2646970667358221220f67c992bf02a00f608bcde3b038f6dd1937c6382f9f9752c45f612c91c8bfd8b64736f6c63430008180033",
  "linkReferences": {},
  "deployedLinkReferences": {}
}