{
  "_format": "hh-sol-artifact-1",
  "contractName": "Todo",
  "sourceName": "contracts/Todo.sol",
  "abi": [
    {
      "inputs": [],
      "stateMutability": "nonpayable",
      "type": "constructor"
    },
    {
      "anonymous": false,
      "inputs": [
        {
          "indexed": false,
          "internalType": "uint256",
          "name": "index",
          "type": "uint256"
        }
      ],
      "name": "itemDelete",
      "type": "event"
    },
    {
      "anonymous": false,
      "inputs": [
        {
          "indexed": false,
          "internalType": "string",
          "name": "todo",
          "type": "string"
        },
        {
          "indexed": false,
          "internalType": "bool",
          "name": "done",
          "type": "bool"
        },
        {
          "indexed": false,
          "internalType": "address",
          "name": "authur",
          "type": "address"
        },
        {
          "indexed": false,
          "internalType": "uint256",
          "name": "index",
          "type": "uint256"
        }
      ],
      "name": "itemLog",
      "type": "event"
    },
    {
      "inputs": [
        {
          "internalType": "string",
          "name": "todo",
          "type": "string"
        }
      ],
      "name": "addTodo",
      "outputs": [],
      "stateMutability": "nonpayable",
      "type": "function"
    },
    {
      "inputs": [
        {
          "internalType": "uint256",
          "name": "index",
          "type": "uint256"
        }
      ],
      "name": "completeTodo",
      "outputs": [],
      "stateMutability": "nonpayable",
      "type": "function"
    },
    {
      "inputs": [
        {
          "internalType": "uint256",
          "name": "index",
          "type": "uint256"
        }
      ],
      "name": "deleteTodo",
      "outputs": [],
      "stateMutability": "nonpayable",
      "type": "function"
    },
    {
      "inputs": [],
      "name": "owner",
      "outputs": [
        {
          "internalType": "address",
          "name": "",
          "type": "address"
        }
      ],
      "stateMutability": "view",
      "type": "function"
    },
    {
      "inputs": [],
      "name": "todoCount",
      "outputs": [
        {
          "internalType": "uint256",
          "name": "",
          "type": "uint256"
        }
      ],
      "stateMutability": "view",
      "type": "function"
    },
    {
      "inputs": [
        {
          "internalType": "uint256",
          "name": "",
          "type": "uint256"
        }
      ],
      "name": "todos",
      "outputs": [
        {
          "internalType": "string",
          "name": "todo",
          "type": "string"
        },
        {
          "internalType": "bool",
          "name": "done",
          "type": "bool"
        },
        {
          "internalType": "address",
          "name": "authur",
          "type": "address"
        },
        {
          "internalType": "uint256",
          "name": "index",
          "type": "uint256"
        }
      ],
      "stateMutability": "view",
      "type": "function"
    },
    {
      "inputs": [
        {
          "internalType": "uint256",
          "name": "index",
          "type": "uint256"
        },
        {
          "internalType": "string",
          "name": "_todo",
          "type": "string"
        }
      ],
      "name": "updateTodo",
      "outputs": [],
      "stateMutability": "nonpayable",
      "type": "function"
    }
  ],
  "bytecode": "0x608060405234801561001057600080fd5b50336000806101000a81548173ffffffffffffffffffffffffffffffffffffffff021916908373ffffffffffffffffffffffffffffffffffffffff160217905550611136806100606000396000f3fe608060405234801561001057600080fd5b506004361061007d5760003560e01c806395ffebf51161005b57806395ffebf5146100d8578063bc8bc2b4146100f4578063d534ee8814610127578063fe0dee17146101435761007d565b806320fe2144146100825780636e3c67381461009e5780638da5cb5b146100ba575b600080fd5b61009c60048036038101906100979190610859565b610161565b005b6100b860048036038101906100b39190610859565b6102c0565b005b6100c2610409565b6040516100cf91906108c7565b60405180910390f35b6100f260048036038101906100ed9190610a28565b61042d565b005b61010e60048036038101906101099190610859565b610563565b60405161011e9493929190610b1a565b60405180910390f35b610141600480360381019061013c9190610b66565b610648565b005b61014b6107ac565b6040516101589190610bc2565b60405180910390f35b3373ffffffffffffffffffffffffffffffffffffffff166002600083815260200190815260200160002060010160019054906101000a900473ffffffffffffffffffffffffffffffffffffffff1673ffffffffffffffffffffffffffffffffffffffff1614610205576040517f08c379a00000000000000000000000000000000000000000000000000000000081526004016101fc90610c29565b60405180910390fd5b60016002600083815260200190815260200160002060010160006101000a81548160ff0219169083151502179055507f014f457e16eae4c5a51767fca0ee48c62572f64a29243bc2178f17cbaab95afd6002600083815260200190815260200160002060000160016002600085815260200190815260200160002060010160019054906101000a900473ffffffffffffffffffffffffffffffffffffffff16846040516102b59493929190610d42565b60405180910390a150565b6002600082815260200190815260200160002060010160019054906101000a900473ffffffffffffffffffffffffffffffffffffffff168073ffffffffffffffffffffffffffffffffffffffff163373ffffffffffffffffffffffffffffffffffffffff1614610365576040517f08c379a000000000000000000000000000000000000000000000000000000000815260040161035c90610e00565b60405180910390fd5b600260008381526020019081526020016000206000808201600061038991906107b2565b6001820160006101000a81549060ff02191690556001820160016101000a81549073ffffffffffffffffffffffffffffffffffffffff0219169055600282016000905550507fea66df62b951ad4448b4df704b142d345f17ce0a4fc4b463cb1e68627065b2a7826040516103fd9190610bc2565b60405180910390a15050565b60008054906101000a900473ffffffffffffffffffffffffffffffffffffffff1681565b60405180608001604052808281526020016000151581526020013373ffffffffffffffffffffffffffffffffffffffff16815260200160015481525060026000600154815260200190815260200160002060008201518160000190816104939190610fb7565b5060208201518160010160006101000a81548160ff02191690831515021790555060408201518160010160016101000a81548173ffffffffffffffffffffffffffffffffffffffff021916908373ffffffffffffffffffffffffffffffffffffffff160217905550606082015181600201559050507f014f457e16eae4c5a51767fca0ee48c62572f64a29243bc2178f17cbaab95afd816000336001546040516105409493929190610b1a565b60405180910390a16001600081548092919061055b906110b8565b919050555050565b600260205280600052604060002060009150905080600001805461058690610c78565b80601f01602080910402602001604051908101604052809291908181526020018280546105b290610c78565b80156105ff5780601f106105d4576101008083540402835291602001916105ff565b820191906000526020600020905b8154815290600101906020018083116105e257829003601f168201915b5050505050908060010160009054906101000a900460ff16908060010160019054906101000a900473ffffffffffffffffffffffffffffffffffffffff16908060020154905084565b6002600083815260200190815260200160002060010160019054906101000a900473ffffffffffffffffffffffffffffffffffffffff168073ffffffffffffffffffffffffffffffffffffffff163373ffffffffffffffffffffffffffffffffffffffff16146106ed576040517f08c379a00000000000000000000000000000000000000000000000000000000081526004016106e490610e00565b60405180910390fd5b816002600085815260200190815260200160002060000190816107109190610fb7565b507f014f457e16eae4c5a51767fca0ee48c62572f64a29243bc2178f17cbaab95afd826002600086815260200190815260200160002060010160009054906101000a900460ff166002600087815260200190815260200160002060010160019054906101000a900473ffffffffffffffffffffffffffffffffffffffff168660405161079f9493929190610b1a565b60405180910390a1505050565b60015481565b5080546107be90610c78565b6000825580601f106107d057506107ef565b601f0160209004906000526020600020908101906107ee91906107f2565b5b50565b5b8082111561080b5760008160009055506001016107f3565b5090565b6000604051905090565b600080fd5b600080fd5b6000819050919050565b61083681610823565b811461084157600080fd5b50565b6000813590506108538161082d565b92915050565b60006020828403121561086f5761086e610819565b5b600061087d84828501610844565b91505092915050565b600073ffffffffffffffffffffffffffffffffffffffff82169050919050565b60006108b182610886565b9050919050565b6108c1816108a6565b82525050565b60006020820190506108dc60008301846108b8565b92915050565b600080fd5b600080fd5b6000601f19601f8301169050919050565b7f4e487b7100000000000000000000000000000000000000000000000000000000600052604160045260246000fd5b610935826108ec565b810181811067ffffffffffffffff82111715610954576109536108fd565b5b80604052505050565b600061096761080f565b9050610973828261092c565b919050565b600067ffffffffffffffff821115610993576109926108fd565b5b61099c826108ec565b9050602081019050919050565b82818337600083830152505050565b60006109cb6109c684610978565b61095d565b9050828152602081018484840111156109e7576109e66108e7565b5b6109f28482856109a9565b509392505050565b600082601f830112610a0f57610a0e6108e2565b5b8135610a1f8482602086016109b8565b91505092915050565b600060208284031215610a3e57610a3d610819565b5b600082013567ffffffffffffffff811115610a5c57610a5b61081e565b5b610a68848285016109fa565b91505092915050565b600081519050919050565b600082825260208201905092915050565b60005b83811015610aab578082015181840152602081019050610a90565b60008484015250505050565b6000610ac282610a71565b610acc8185610a7c565b9350610adc818560208601610a8d565b610ae5816108ec565b840191505092915050565b60008115159050919050565b610b0581610af0565b82525050565b610b1481610823565b82525050565b60006080820190508181036000830152610b348187610ab7565b9050610b436020830186610afc565b610b5060408301856108b8565b610b5d6060830184610b0b565b95945050505050565b60008060408385031215610b7d57610b7c610819565b5b6000610b8b85828601610844565b925050602083013567ffffffffffffffff811115610bac57610bab61081e565b5b610bb8858286016109fa565b9150509250929050565b6000602082019050610bd76000830184610b0b565b92915050565b7f596f7520617265206e6f74207468652061757468757200000000000000000000600082015250565b6000610c13601683610a7c565b9150610c1e82610bdd565b602082019050919050565b60006020820190508181036000830152610c4281610c06565b9050919050565b7f4e487b7100000000000000000000000000000000000000000000000000000000600052602260045260246000fd5b60006002820490506001821680610c9057607f821691505b602082108103610ca357610ca2610c49565b5b50919050565b60008190508160005260206000209050919050565b60008154610ccb81610c78565b610cd58186610a7c565b94506001821660008114610cf05760018114610d0657610d39565b60ff198316865281151560200286019350610d39565b610d0f85610ca9565b60005b83811015610d3157815481890152600182019150602081019050610d12565b808801955050505b50505092915050565b60006080820190508181036000830152610d5c8187610cbe565b9050610d6b6020830186610afc565b610d7860408301856108b8565b610d856060830184610b0b565b95945050505050565b7f4f6e6c79206f776e65722063616e2063616c6c20746869732066756e6374696f60008201527f6e00000000000000000000000000000000000000000000000000000000000000602082015250565b6000610dea602183610a7c565b9150610df582610d8e565b604082019050919050565b60006020820190508181036000830152610e1981610ddd565b9050919050565b60006020601f8301049050919050565b600082821b905092915050565b600060088302610e6d7fffffffffffffffffffffffffffffffffffffffffffffffffffffffffffffffff82610e30565b610e778683610e30565b95508019841693508086168417925050509392505050565b6000819050919050565b6000610eb4610eaf610eaa84610823565b610e8f565b610823565b9050919050565b6000819050919050565b610ece83610e99565b610ee2610eda82610ebb565b848454610e3d565b825550505050565b600090565b610ef7610eea565b610f02818484610ec5565b505050565b5b81811015610f2657610f1b600082610eef565b600181019050610f08565b5050565b601f821115610f6b57610f3c81610ca9565b610f4584610e20565b81016020851015610f54578190505b610f68610f6085610e20565b830182610f07565b50505b505050565b600082821c905092915050565b6000610f8e60001984600802610f70565b1980831691505092915050565b6000610fa78383610f7d565b9150826002028217905092915050565b610fc082610a71565b67ffffffffffffffff811115610fd957610fd86108fd565b5b610fe38254610c78565b610fee828285610f2a565b600060209050601f831160018114611021576000841561100f578287015190505b6110198582610f9b565b865550611081565b601f19841661102f86610ca9565b60005b8281101561105757848901518255600182019150602085019450602081019050611032565b868310156110745784890151611070601f891682610f7d565b8355505b6001600288020188555050505b505050505050565b7f4e487b7100000000000000000000000000000000000000000000000000000000600052601160045260246000fd5b60006110c382610823565b91507fffffffffffffffffffffffffffffffffffffffffffffffffffffffffffffffff82036110f5576110f4611089565b5b60018201905091905056fea2646970667358221220352cc9fc6b0f92eb3f71b13fe6a0eaefa9d9ef7c848218084ceaf9f44f22a6c564736f6c63430008180033",
  "linkReferences": {},
  "deployedLinkReferences": {}
}